:1002A400E4F50FF50EF50D120272AC06AD077F30C2
:1002B400120238E4F50FF50E750D60120272AC06E9
:0702C400AD077F3402023890
:10023800D282C282E4FBD281EF30E704D28080020E
:10024800C280C281EF25E0FF0BBB08EAE4FBD28144
:10025800EC30E704D2808002C280C281ED25E0FD47
:09026800EC33FC0BBB10E7D28261
:01027100226A
:09027200750C40FFFE7DA07C40EC
:08027B008F0B8E0A8D098C081F
:10028300E4FFFE7D807C47AB0FAA0EA90DA80C12DC
:100293000003AB0BAA0AA909A80812010C1201A9B1
:0102A3002238
:10000300EC4D6011E8497017ED33EC3304600DE4F7
:10001300FCFFFEFD22E933E8330470F802021512F7
:1000230001E058046009E4CC2481500628500902F9
:10003300021F28400302021CC0E0EB4A7044B9804F
:1000430006D0E0FB02020BEF4E701CBD8008EBFFF5
:10005300EAFEE9FD80EBE98DF0A4FEE5F00200EC99
:10006300E9CDF9EAFEEBFFEF89F0A4FCE5F0CE89D8
:10007300F0A42EFFE435F0CD89F0A42DFEE435F095
:100083008067EF4E7005BD80D780C3EF8BF0A4ACC3
:10009300F0EE8BF0A42CFCE435F0F8EF8AF0A42CFE
:1000A300E5F038FCE433CB8DF0A42CFCE5F03BF811
:1000B300EE8AF0A42CFCE5F038F8E433CF89F0A401
:1000C3002CFCE5F038CF3400CE89F0A42FFFE5F007
:1000D3003EFEE433C98DF0A42EFEE5F039CD8AF05F
:1000E300A42FFFE5F03EFEE43DFD33D0E0FB5007D7
:1000F3000BBB000F02021FEC2CFCEF33FFEE33FEB1
:06010300ED33FD0201F7DF
:1001090002021FEC5D046005E85904700302021540
:100119001201E0580460F6EC4860F2EC7004FDFE50
:10012900FF22C860DB2481C85009C39860025006C9
:1001390002021C9850CAF582E9294B4A7005AB8224
:1001490002020B75F0007C1A7880C3EF9BEE9AEDE2
:1001590099400DC3EF9BFFEE9AFEED99FDE842F041
:10016900DC23ACF0D0E0FFD0E0FED0E0FDAB822094
:10017900E7101BEB60BAEC2CFCEF33FFEE33FEED1E
:1001890033FD0201F7E803F830E705C0F075F00028
:10019900EF2FFFEE33FEED33FD40B830E7C280AA02
:1001A900EDD2E7CD33EC3392D524814006E4FFFE4E
:1001B900FDFC22FCE4CFCECDCC24E0501174FF80AD
:1001C900EDC3CC13CCCD13CDCE13CECF13CF04704A
:0701D900F030D5DE02022A1E
:1001E000E9D2E7C933E833F892D5EDD2E7CD33EC65
:0701F00033FC5002B2D522DE
:1001F700EC30E7100FBF000C0EBE00080DBD000469
:100207000BEB6014A2D5EB13FCED92E7FD2274FF14
:10021700FCFDFEFF22E480F8A2D574FF13FC7D806D
:03022700E480EF81
:030000000202CB2E
:0C02CB00787FE4F6D8FD75810F0202A4D4
:0E022A00C3E49FFFE49EFEE49DFDE49CFC22E5
:00000001FF
